:100000000C942A000C9447000C9447000C94470071
:100010000C9447000C9447000C9447000C94470044
:100020000C9447000C9447000C94AF080C947C0887
:100030000C9447000C9447000C9447000C94470024
:100040000C9447000C9447000C9447000C94470014
:100050000C94470011241FBECFE5D4E0DEBFCDBF16
:1000600011E0A0E6B0E0ECEAF5E302C005900D92E5
:10007000AA3FB107D9F711E0AAEFB1E001C01D9284
:10008000AE3FB107E1F70E94EC150C94D41A0C9422
:100090000000EF92FF920F931F937B018C0120E0F1
:1000A00030E040E05FE40E94F50388238CF0C80153
:1000B000B70120E030E040E05FE40E94C1010E940F
:1000C00055049B01AC01205030404040504806C0D0
:1000D000C801B7010E9455049B01AC01B901CA01D6
:1000E0001F910F91FF90EF900895A0E0B0E0EBE733
:1000F000F0E00C949D1ADC012B01FA019C919230E6
:1001000008F439C1EB018881823008F433C194309E
:1001100069F4843009F02FC111969C91119789815F
:10012000981709F428C1A9EEB0E025C1843009F47C
:1001300021C18230A9F4923009F01DC19A01AD01AC
:1001400088E0EA010990AE01E90109929E0181501F
:10015000C1F7E201898111969C918923818308C1AD
:10016000923009F407C112962D903C901397EB0141
:100170008A819B811496AD90BD90CD90DC901797AD
:10018000EC80FD800E811F819101281B390BB90184
:1001900037FF04C066277727621B730B6032710537
:1001A0000CF061C0121613066CF537014801062EDB
:1001B00004C096948794779467940A94D2F721E0C8
:1001C00030E040E050E004C0220F331F441F551FB1
:1001D0006A95D2F721503040404050402E213F21B7
:1001E00040235123211531054105510521F021E01E
:1001F00030E040E050E079018A01E628F72808293C
:1002000019293CC0232BD1F1260E371E350146019A
:10021000062E04C096948794779467940A94D2F734
:1002200021E030E040E050E004C0220F331F441FC3
:10023000551F6A95D2F721503040404050402A2146
:100240003B214C215D21211531054105510521F04E
:1002500021E030E040E050E059016A01A628B728CB
:10026000C828D9280BC0821593052CF01C01AA249C
:10027000BB24650103C0EE24FF24870111969C91E5
:10028000D20111968C91981709F445C0992339F041
:10029000A80197012A193B094C095D0906C0A6016E
:1002A00095012E193F09400B510B57FD08C01182D3
:1002B0003382228224833583468357831DC081E0A5
:1002C00081833382228288279927DC01821B930B4A
:1002D000A40BB50B84839583A683B7830DC0220F2F
:1002E000331F441F551F24833583468357838281E0
:1002F000938101979383828324813581468157813D
:10030000DA01C9010197A109B1098F5F9F4FAF4F72
:10031000BF4328F30BC0918333822282EA0CFB1C7B
:100320000C1D1D1DE482F5820683178383E0808304
:10033000248135814681578157FF1AC0C901AA27F8
:1003400097FDA095BA2F81709070A070B0705695EF
:10035000479537952795822B932BA42BB52B848318
:100360009583A683B7838281938101969383828349
:10037000DF0101C0D201CD01CDB7DEB7E2E10C94BF
:10038000B91AA0E2B0E0E7ECF1E00C94A91A698395
:100390007A838B839C832D833E834F835887E9E048
:1003A000EE2EF12CEC0EFD1ECE010196B7010E943F
:1003B00046068E010F5E1F4FCE010596B8010E94C2
:1003C00046068A8991E089278A8BC701B801AE0168
:1003D000475E5F4F0E9475000E947105A096E6E09F
:1003E0000C94C51AA0E2B0E0E8EFF1E00C94A91A71
:1003F00069837A838B839C832D833E834F835887C5
:10040000F9E0EF2EF12CEC0EFD1ECE010196B701A6
:100410000E9446068E010F5E1F4FCE010596B80161
:100420000E944606C701B801AE01475E5F4F0E94B9
:1004300075000E947105A096E6E00C94C51AA0E232
:10044000B0E0E5E2F2E00C949D1A69837A838B8335
:100450009C832D833E834F835887CE010196BE0136
:10046000675F7F4F0E944606CE010596BE016F5E14
:100470007F4F0E9446069985923088F089898230A4
:10048000C8F0943019F4823051F404C0843029F457
:10049000923081F489EE90E0C6C0923049F420E0B9
:1004A0009A858A89981321E02A87CE010996BBC0D4
:1004B000823049F420E09A858A89981321E02A8BBA
:1004C000CE014196B0C02D843E844F8458886D88FB
:1004D0007E888F88988CEE24FF248701AA24BB2471
:1004E000650140E050E060E070E0E0E0F0E0C10174
:1004F00081709070892BE9F0E60CF71C081D191D1E
:100500009A01AB012A0D3B1D4C1D5D1D80E090E062
:10051000A0E0B0E0E614F7040805190520F481E036
:1005200090E0A0E0B0E0BA01A901480F591F6A1F8E
:100530007B1FAA0CBB1CCC1CDD1C97FE08C081E0F5
:1005400090E0A0E0B0E0A82AB92ACA2ADB2A3196B6
:10055000E032F10549F0660C771C881C991C569412
:10056000479437942794C3CFFA85EA892B893C892D
:100570008B859C85280F391F2E5F3F4F17C0CA01FE
:1005800081709070892B61F016950795F794E79428
:1005900080E090E0A0E0B0E8E82AF92A0A2B1B2BC3
:1005A00076956795579547952F5F3F4F77FDE7CF36
:1005B0000CC0440F551F661F771F17FD4160EE0CDE
:1005C000FF1C001F111F21503040403090E05907A0
:1005D00090E0690790E4790760F32B8F3C8FDB0193
:1005E000CA018F779070A070B07080349105A1051A
:1005F000B10561F447FD0AC0E114F10401051105DC
:1006000029F0405C5F4F6F4F7F4F40781A8EFE1786
:1006100011F081E08A8F4D8F5E8F6F8F78A383E01A
:10062000898FCE0149960E947105A096E2E10C9453
:10063000B91AA8E1B0E0EFE1F3E00C94A51A6983E0
:100640007A838B839C832D833E834F835887B9E0C5
:10065000EB2EF12CEC0EFD1ECE010196B7010E948F
:1006600046068E010F5E1F4FCE010596B8010E940F
:1006700046062985223008F47EC03989323010F4CC
:10068000B8017CC08A859A8989278A87243011F02D
:10069000223031F4231709F06EC069EE70E06EC0AD
:1006A000343039F41D861E861F86188A1C861B86E8
:1006B00004C0323021F484E08987B7015FC02B8504
:1006C0003C858B899C89281B390B3C872B87ED84C3
:1006D000FE840F851889AD88BE88CF88D88CEA142F
:1006E000FB040C051D0540F4EE0CFF1C001F111F40
:1006F000215030403C872B8720E030E040E050E044
:1007000080E090E0A0E0B0E460E070E0EA14FB0478
:100710000C051D0540F0282B392B4A2B5B2BEA18C2
:10072000FB080C091D09B695A79597958795EE0CC2
:10073000FF1C001F111F6F5F7F4F6F31710531F775
:10074000DA01C9018F779070A070B0708034910584
:10075000A105B10561F427FD0AC0E114F10401050A
:10076000110529F0205C3F4F4F4F5F4F20782D87B8
:100770003E874F87588BBE01675F7F4FCB010E943A
:1007800071056896EAE00C94C11AA8E1B0E0EBECC0
:10079000F3E00C94A91A69837A838B839C832D835D
:1007A0003E834F83588789E0E82EF12CEC0EFD1E26
:1007B000CE010196B7010E9446068E010F5E1F4FC3
:1007C000CE010596B8010E9446068985823040F028
:1007D0008989823028F0C701B8010E94BE0601C095
:1007E0008FEF6896E6E00C94C51AA8E1B0E0EBEF55
:1007F000F3E00C94A91A69837A838B839C832D83FD
:100800003E834F83588789E0E82EF12CEC0EFD1EC5
:10081000CE010196B7010E9446068E010F5E1F4F62
:10082000CE010596B8010E9446068985823040F0C7
:100830008989823028F0C701B8010E94BE0601C034
:100840008FEF6896E6E00C94C51AA8E1B0E0EBE201
:10085000F4E00C94A91A69837A838B839C832D839B
:100860003E834F83588789E0E82EF12CEC0EFD1E65
:10087000CE010196B7010E9446068E010F5E1F4F02
:10088000CE010596B8010E9446068985823040F067
:100890008989823028F0C701B8010E94BE0601C0D4
:1008A00081E06896E6E00C94C51AACE0B0E0EBE5B8
:1008B000F4E00C94AD1A69837A838B839C83CE0118
:1008C0000196BE016B5F7F4F0E9446068D8182308C
:1008D00061F1823050F1843021F48E81882351F10E
:1008E0002EC02F81388537FD20C06E812F31310514
:1008F0001CF06623F9F023C08EE190E0821B930B7D
:1009000029853A854B855C8504C056954795379572
:1009100027958A95D2F76623B1F05095409530958A
:1009200021953F4F4F4F5F4F0EC020E030E040E039
:1009300050E009C02FEF3FEF4FEF5FE704C020E02A
:1009400030E040E050E8B901CA012C96E2E00C9496
:10095000C91AA8E0B0E0EFEAF4E00C94A51A7B0114
:100960008C01611571058105910519F482E0898377
:1009700060C083E089838EE1C82ED12CDC82CB82DB
:10098000ED82FE820F831887C801B7010E942205FD
:10099000FC013197F7FF3BC0222733272E1B3F0B6B
:1009A00057016801022E04C0D694C794B794A79447
:1009B0000A94D2F740E050E060E070E081E090E01F
:1009C000A0E0B0E004C0880F991FAA1FBB1F2A95A2
:1009D000D2F70197A109B1098E219F21A023B1234C
:1009E0000097A105B10521F041E050E060E070E022
:1009F0004A295B296C297D294D835E836F83788723
:100A00008EE190E08E1B9F0B9C838B8312C03097EE
:100A100081F00E2E04C0EE0CFF1C001F111F0A9463
:100A2000D2F7ED82FE820F831887CE1ADF0ADC82AE
:100A3000CB821A82CE0101960E9471052896EAE0C7
:100A40000C94C11AEF92FF920F931F937B018C01BC
:100A500080E0E81680E0F80681E0080780E01807EB
:100A600088F48FEFE816F1040105110531F028F044
:100A700088E090E0A0E0B0E017C080E090E0A0E067
:100A8000B0E012C080E0E81680E0F80680E00807D9
:100A900081E0180728F088E190E0A0E0B0E004C011
:100AA00080E190E0A0E0B0E020E230E040E050E003
:100AB000281B390B4A0B5B0B04C016950795F7945E
:100AC000E7948A95D2F7F701EF50FF4F8081281BFA
:100AD000310941095109C9011F910F91FF90EF9010
:100AE0000895DF92EF92FF920F931F93FC01E48031
:100AF000F58006811781D1808081823048F480E0C2
:100B000090E0A0E1B0E0E82AF92A0A2B1B2BA5C04F
:100B1000843009F49FC0823021F4EE24FF24870141
:100B200005C0E114F1040105110519F4E0E0F0E05D
:100B300096C0628173819FEF623879070CF05BC0C9
:100B400022E83FEF261B370B2A3131052CF020E03D
:100B500030E040E050E02AC0B801A701022E04C0F6
:100B600076956795579547950A94D2F781E090E07E
:100B7000A0E0B0E004C0880F991FAA1FBB1F2A95F0
:100B8000D2F70197A109B1098E219F21A023B1239A
:100B90000097A105B10521F081E090E0A0E0B0E070
:100BA0009A01AB01282B392B4A2B5B2BDA01C901A7
:100BB0008F779070A070B07080349105A105B10559
:100BC00039F427FF09C0205C3F4F4F4F5F4F04C0EF
:100BD000215C3F4F4F4F5F4FE0E0F0E02030A0E05E
:100BE0003A07A0E04A07A0E45A0710F0E1E0F0E07D
:100BF00079018A0127C06038710564F5FB01E1586D
:100C0000FF4FD801C7018F779070A070B07080340B
:100C10009105A105B10539F4E7FE0DC080E490E02F
:100C2000A0E0B0E004C08FE390E0A0E0B0E0E80E08
:100C3000F91E0A1F1B1F17FF05C016950795F7948D
:100C4000E794319687E016950795F794E7948A958F
:100C5000D1F705C0EE24FF248701EFEFF0E06E2FFF
:100C6000679566276795902F9F77D794DD24D79453
:100C70008E2F8695492F462B582F5D29B701CA0123
:100C80001F910F91FF90EF90DF900895FC01DB0121
:100C9000408151812281622F6F7770E0221F2227CD
:100CA000221F9381892F880F822B282F30E0991FD4
:100CB0009927991F11969C93119721153105A9F534
:100CC000411551056105710511F482E037C082E8D4
:100CD0009FEF13969C938E9312979A01AB0167E056
:100CE000220F331F441F551F6A95D1F783E08C9361
:100CF0000DC0220F331F441F551F12968D919C91DA
:100D00001397019713969C938E931297203080E04F
:100D1000380780E0480780E4580758F314962D936D
:100D20003D934D935C93179708952F3F310579F4C8
:100D3000411551056105710519F484E08C930895FE
:100D400064FF03C081E08C9312C01C9210C02F5727
:100D5000304013963C932E93129783E08C9387E058
:100D6000440F551F661F771F8A95D1F7706414963C
:100D70004D935D936D937C93179708951F93DC01BA
:100D8000FB019C91923008F447C08081823008F4C6
:100D900043C0943051F411961C91843099F58181AF
:100DA000682F70E0611B71093FC0843021F09230E0
:100DB00031F48230B9F18181882389F12DC01196F7
:100DC0001C9111978230F1F081811817D9F4129695
:100DD0002D913C911397828193818217930794F010
:100DE00028173907BCF014968D919D910D90BC91F8
:100DF000A02D2481358146815781281739074A075C
:100E00005B0718F4112341F00AC082179307A40767
:100E1000B50740F4112319F061E070E005C06FEFF1
:100E20007FEF02C060E070E0CB011F910895DF9377
:100E3000CF93CDB7DEB783E060E040E00E94640965
:100E400083E061E041E00E946409CF91DF91089561
:100E5000DF93CF93CDB7DEB7AAE2B0E0EAE2F0E0ED
:100E600080818B7F8C93E0E4F0E086E88083E9E288
:100E7000F0E083E38083AAE2B0E0EAE2F0E0808180
:100E800080618C93AAE2B0E0EAE2F0E080818860C1
:100E90008C93CF91DF910895DF93CF930F92CDB7CD
:100EA000DEB78983EBE2F0E08081829586958770DA
:100EB000882F90E0817090700097A1F3ECE2F0E051
:100EC000898180830F90CF91DF910895DF93CF9335
:100ED000CDB7DEB7EBE2F0E080818823DCF7ECE20F
:100EE000F0E08081CF91DF910895DF93CF93CDB76C
:100EF000DEB7AFE4B0E0EFE4F0E080818F7B8C936D
:100F0000AFE4B0E0EFE4F0E0808180688C93AFE480
:100F1000B0E0EFE4F0E080818E7F8C93AFE4B0E04E
:100F2000EFE4F0E0808182608C93AEE4B0E0EEE428
:100F3000F0E0808188608C93AEE4B0E0EEE4F0E015
:100F4000808180618C93AEE4B0E0EEE4F0E08081DB
:100F50008E7F8C93AEE4B0E0EEE4F0E080818260BE
:100F60008C93AEE4B0E0EEE4F0E080818B7F8C9374
:100F7000E6E4F0E080E29EE491838083EAE4F0E03E
:100F80008EEE92E091838083CF91DF910895DF937D
:100F9000CF9300D0CDB7DEB79A838983EAE4F0E03F
:100FA00089819A81918380830F900F90CF91DF91F7
:100FB0000895DF93CF93CDB7DEB7A3E5B0E0E3E5C7
:100FC000F0E080818F7B8C93A3E5B0E0E3E5F0E077
:100FD0008081877F8C93A3E5B0E0E3E5F0E080813A
:100FE000887F8C93A3E5B0E0E3E5F0E08081826048
:100FF0008C93E2E5F0E080EC8083A9E5B0E0E9E5E0
:10100000F0E0808181608C93CF91DF910895DF9330
:10101000CF930F92CDB7DEB78983E2E5F0E0898107
:1010200080830F90CF91DF910895DF93CF9300D00D
:10103000CDB7DEB79A83898389819A819093FB012A
:101040008093FA010F900F90CF91DF910895DF9375
:10105000CF93CDB7DEB7AFE5B0E0EFE5F0E080814C
:1010600080688C93CF91DF910895DF93CF93CDB7B4
:10107000DEB7A3E5B0E0E3E5F0E080818F7B8C9301
:10108000A3E5B0E0E3E5F0E0808188608C93A3E520
:10109000B0E0E3E5F0E080818E7F8C93A3E5B0E0E3
:1010A000E3E5F0E0808182608C93A3E5B0E0E3E5C6
:1010B000F0E080818B7F8C93ECE5F0E088EC80831E
:1010C000A9E5B0E0E9E5F0E0808182608C93CF9102
:1010D000DF910895DF93CF9300D0CDB7DEB79A8329
:1010E000898389819A819093FD018093FC010F90FF
:1010F0000F90CF91DF9108951F920F920FB60F922C
:1011000011242F933F934F935F936F937F938F930C
:101110009F93AF93BF93EF93FF93DF93CF93CDB79D
:10112000DEB78091FA019091FB01009729F0E091E0
:10113000FA01F091FB010995CF91DF91FF91EF91B9
:10114000BF91AF919F918F917F916F915F914F91DF
:101150003F912F910F900FBE0F901F9018951F92E7
:101160000F920FB60F9211242F933F934F935F93DB
:101170006F937F938F939F93AF93BF93EF93FF935F
:10118000DF93CF93CDB7DEB78091FC019091FD0145
:10119000009729F0E091FC01F091FD010995CF91B4
:1011A000DF91FF91EF91BF91AF919F918F917F91CF
:1011B0006F915F914F913F912F910F900FBE0F90C4
:1011C0001F901895DF93CF9300D000D0CDB7DEB736
:1011D00089836A838981282F30E03C832B838B812C
:1011E0009C8181309105D1F02B813C8122303105E9
:1011F0002CF48B819C81009761F01EC02B813C8177
:101200002230310581F08B819C818330910581F002
:1012100013C0EAE3F0E08A8180830EC0E7E3F0E0E8
:101220008A81808309C0E4E3F0E08A81808304C07E
:10123000E1E3F0E08A8180830F900F900F900F9090
:10124000CF91DF910895DF93CF9300D000D0CDB739
:10125000DEB789836A838981282F30E03C832B8322
:101260008B819C8181309105D1F02B813C81223092
:1012700031052CF48B819C81009761F01EC02B817D
:101280003C812230310581F08B819C818330910536
:1012900081F013C0EBE3F0E08A8180830EC0E8E3C5
:1012A000F0E08A81808309C0E5E3F0E08A818083F1
:1012B00004C0E2E3F0E08A8180830F900F900F90EA
:1012C0000F90CF91DF910895DF93CF93CDB7DEB725
:1012D00027970FB6F894DEBF0FBECDBF89836A8310
:1012E0004B838B81813009F06FC08981282F30E0DA
:1012F0003F832E838E819F818130910549F12E811C
:101300003F81223031052CF48E819F81009761F05E
:10131000D2C02E813F812230310571F18E819F81B3
:1013200083309105E9F1C7C0AAE3B0E0EAE3F0E059
:101330008081482F8A81282F30E081E090E0022EC2
:1013400002C0880F991F0A94E2F7842B8C93B3C0D4
:10135000A7E3B0E0E7E3F0E08081482F8A81282FFF
:1013600030E081E090E0022E02C0880F991F0A94BD
:10137000E2F7842B8C939FC0A4E3B0E0E4E3F0E0B9
:101380008081482F8A81282F30E081E090E0022E72
:1013900002C0880F991F0A94E2F7842B8C938BC0AC
:1013A000A1E3B0E0E1E3F0E08081482F8A81282FBB
:1013B00030E081E090E0022E02C0880F991F0A946D
:1013C000E2F7842B8C9377C08B81882309F073C05C
:1013D0008981282F30E03D832C838C819D81813051
:1013E000910559F12C813D81223031052CF48C81FD
:1013F0009D81009769F05FC02C813D8122303105CD
:1014000089F18C819D818330910509F440C053C0DE
:10141000AAE3B0E0EAE3F0E08081482F8A81282F38
:1014200030E081E090E0022E02C0880F991F0A94FC
:10143000E2F7809584238C933EC0A7E3B0E0E7E316
:10144000F0E08081482F8A81282F30E081E090E011
:10145000022E02C0880F991F0A94E2F78095842318
:101460008C9329C0A4E3B0E0E4E3F0E08081482F4E
:101470008A81282F30E081E090E0022E02C0880FA0
:10148000991F0A94E2F7809584238C9314C0A1E3FA
:10149000B0E0E1E3F0E08081482F8A81282F30E03E
:1014A00081E090E0022E02C0880F991F0A94E2F7B3
:1014B000809584238C9327960FB6F894DEBF0FBED9
:1014C000CDBFCF91DF910895DF93CF93CDB7DEB736
:1014D00027970FB6F894DEBF0FBECDBF89836A830E
:1014E0004B838B81813009F06FC08981282F30E0D8
:1014F0003F832E838E819F818130910549F12E811A
:101500003F81223031052CF48E819F81009761F05C
:10151000D2C02E813F812230310571F18E819F81B1
:1015200083309105E9F1C7C0ABE3B0E0EBE3F0E055
:101530008081482F8A81282F30E081E090E0022EC0
:1015400002C0880F991F0A94E2F7842B8C93B3C0D2
:10155000A8E3B0E0E8E3F0E08081482F8A81282FFB
:1015600030E081E090E0022E02C0880F991F0A94BB
:10157000E2F7842B8C939FC0A5E3B0E0E5E3F0E0B5
:101580008081482F8A81282F30E081E090E0022E70
:1015900002C0880F991F0A94E2F7842B8C938BC0AA
:1015A000A2E3B0E0E2E3F0E08081482F8A81282FB7
:1015B00030E081E090E0022E02C0880F991F0A946B
:1015C000E2F7842B8C9377C08B81882309F073C05A
:1015D0008981282F30E03D832C838C819D8181304F
:1015E000910559F12C813D81223031052CF48C81FB
:1015F0009D81009769F05FC02C813D8122303105CB
:1016000089F18C819D818330910509F440C053C0DC
:10161000ABE3B0E0EBE3F0E08081482F8A81282F34
:1016200030E081E090E0022E02C0880F991F0A94FA
:10163000E2F7809584238C933EC0A8E3B0E0E8E312
:10164000F0E08081482F8A81282F30E081E090E00F
:10165000022E02C0880F991F0A94E2F78095842316
:101660008C9329C0A5E3B0E0E5E3F0E08081482F4A
:101670008A81282F30E081E090E0022E02C0880F9E
:10168000991F0A94E2F7809584238C9314C0A2E3F7
:10169000B0E0E2E3F0E08081482F8A81282F30E03B
:1016A00081E090E0022E02C0880F991F0A94E2F7B1
:1016B000809584238C9327960FB6F894DEBF0FBED7
:1016C000CDBFCF91DF910895DF93CF9300D000D0AD
:1016D0000F92CDB7DEB78A836B838A81282F30E0E3
:1016E0003D832C834C815D814130510541F18C81DA
:1016F0009D818230910534F42C813D812115310585
:1017000061F052C04C815D814230510551F18C81B4
:101710009D8183309105B9F147C0E9E3F0E0808114
:10172000282F30E08B81882F90E0A90102C05595C9
:1017300047958A95E2F7CA018170898335C0E6E34F
:10174000F0E08081282F30E08B81882F90E0A90184
:1017500002C0559547958A95E2F7CA018170898341
:1017600023C0E3E3F0E08081282F30E08B81882FD5
:1017700090E0A90102C0559547958A95E2F7CA0104
:101780008170898311C0E0E3F0E08081282F30E090
:101790008B81882F90E0A90102C0559547958A95C5
:1017A000E2F7CA018170898389810F900F900F90B1
:1017B0000F900F90CF91DF910895DF93CF93CDB726
:1017C000DEB7E7E2F0E01082A7E2B0E0E7E2F0E0A7
:1017D00080818C93E6E2F0E01082A6E2B0E0E6E2DF
:1017E000F0E0808180618C93A6E2B0E0E6E2F0E078
:1017F000808186608C93A6E2B0E0E6E2F0E0808132
:1018000080688C93CF91DF910895DF93CF930F92EF
:10181000CDB7DEB78983A7E2B0E0E7E2F0E08081F0
:10182000807E8C93A7E2B0E0E7E2F0E090818981CE
:10183000892B8C93A6E2B0E0E6E2F0E08081806440
:101840008C93E6E2F0E0808182958F70882F90E0A3
:10185000817090700097A9F3A6E2B0E0E6E2F0E0B4
:10186000808180618C93E4E2F0E0808191810F902F
:10187000CF91DF910895DF93CF9300D000D000D0B7
:10188000CDB7DEB79E838D838D819E81CC01A0E094
:10189000B0E0BC01CD010E94A904DC01CB01BC0178
:1018A000CD0120E030E040E854E40E941903DC015F
:1018B000CB01BC01CD0120E030E040EA50E40E94C1
:1018C0001F02DC01CB0189839A83AB83BC838981AE
:1018D0009A81AB81BC81BC01CD0126960FB6F894EC
:1018E000DEBF0FBECDBFCF91DF910895DF93CF93C1
:1018F000CDB7DEB781E06FEF0E94E208CF91DF91B4
:101900000895DF93CF93CDB7DEB72B970FB6F8943A
:10191000DEBF0FBECDBF80E00E94050C9B878A878B
:101920008A859B8523E08038920780F081E06FEF05
:101930000E94230980E061E00E941E1080E690E092
:101940000E94F50F88E30E94AF0E62C18A859B85D5
:1019500023E08030920720F18A859B8523E081383F
:101960009207F0F4198608C081E0698541E00E9481
:10197000640A89858F5F898789858730A8F381E02C
:1019800067E040E00E94640A80E061E00E941E106F
:1019900080E690E00E94F50F87E30E94AF0E38C109
:1019A0008A859B8522E08038920748F18A859B854D
:1019B00023E08130920718F5188608C081E0688519
:1019C00041E00E94640A88858F5F88878885863019
:1019D000A8F381E066E040E00E94640A81E067E0ED
:1019E00040E00E94640A80E061E00E941E1080E6F0
:1019F00090E00E94F50F86E30E94AF0E09C18A8530
:101A00009B8522E08030920770F18A859B8522E0D9
:101A10008138920740F51F8208C081E06F8141E064
:101A20000E94640A8F818F5F8F838F818530A8F336
:101A300081E065E040E00E94640A81E066E040E009
:101A40000E94640A81E067E040E00E94640A80E04E
:101A500061E00E941E1080E690E00E94F50F85E391
:101A60000E94AF0ED5C08A859B8521E08038920701
:101A700078F18A859B8522E08130920748F51E82A5
:101A800008C081E06E8141E00E94640A8E818F5F10
:101A90008E838E818430A8F31D820BC08D81982F98
:101AA0009C5F81E0692F40E00E94640A8D818F5F16
:101AB0008D838D81843090F380E061E00E941E1060
:101AC00080E690E00E94F50F84E30E94AF0EA0C074
:101AD0008A859B858F3F910581F178F18A859B8569
:101AE00021E08138920748F51C8208C081E06C81B2
:101AF00041E00E94640A8C818F5F8C838C818330EB
:101B0000A8F31B820BC08B81982F9D5F81E0692F0A
:101B100040E00E94640A8B818F5F8B838B818530CC
:101B200090F380E061E00E941E1080E690E00E9449
:101B3000F50F83E30E94AF0E6BC08A859B858038CA
:101B4000910560F18A859B8521E08130920730F50F
:101B500081E060E041E00E94640A81E061E041E0F0
:101B60000E94640A1A820BC08A81982F9E5F81E0CE
:101B7000692F40E00E94640A8A818F5F8A838A818C
:101B8000863090F380E061E00E941E1080E690E0D5
:101B90000E94F50F82E30E94AF0E3AC08A859B85B2
:101BA0008034910530F18A859B858138910508F54F
:101BB00081E060E041E00E94640A19820BC08981E3
:101BC000982F9F5F81E0692F40E00E94640A89811D
:101BD0008F5F89838981873090F380E061E00E9484
:101BE0001E1080E690E00E94F50F81E30E94AF0E88
:101BF0000FC081E060E00E94230980E061E00E9464
:101C00001E1080E690E00E94F50F80E30E94AF0E68
:101C10002B960FB6F894DEBF0FBECDBFCF91DF91EC
:101C20000895DF93CF93CDB7DEB72F970FB6F89413
:101C3000DEBF0FBECDBF8F8783E062E040E00E9431
:101C4000640A83E063E040E00E94640A82E06F85FA
:101C50000E94230983E064E041E00E94640A80E07E
:101C600090E0A0E0B0E48B879C87AD87BE876B8552
:101C70007C858D859E8520E030E04AE753E40E9414
:101C80001F02DC01CB018F839887A987BA876F81F8
:101C9000788589859A8520E030E040E85FE30E94FE
:101CA000250488232CF481E090E09E838D833FC03F
:101CB0006F81788589859A8520E03FEF4FE757E46B
:101CC0000E94C50318164CF56B857C858D859E8515
:101CD00020E030E040E251E40E941F02DC01CB0131
:101CE000BC01CD010E944900DC01CB019E838D83A4
:101CF0000FC089E190E09C838B838B819C8101974D
:101D0000F1F79C838B838D819E8101979E838D83C8
:101D10008D819E81009769F714C06F8178858985D0
:101D20009A850E944900DC01CB019E838D838D81C1
:101D30009E819A83898389819A810197F1F79A8399
:101D4000898383E064E040E00E94640A2F960FB626
:101D5000F894DEBF0FBECDBFCF91DF910895DF9322
:101D6000CF93CDB7DEB72F970FB6F894DEBF0FBE77
:101D7000CDBF8F8783E062E041E00E94640A83E088
:101D800063E040E00E94640A82E06F850E942309BC
:101D900083E064E041E00E94640A80E090E0A0E01B
:101DA000B0E48B879C87AD87BE876B857C858D85EE
:101DB0009E8520E030E04AE753E40E941F02DC01E8
:101DC000CB018F839887A987BA876F8178858985AA
:101DD0009A8520E030E040E85FE30E9425048823F4
:101DE0002CF481E090E09E838D833FC06F817885E5
:101DF00089859A8520E03FEF4FE757E40E94C503AD
:101E000018164CF56B857C858D859E8520E030E02D
:101E100040E251E40E941F02DC01CB01BC01CD0174
:101E20000E944900DC01CB019E838D830FC089E1B4
:101E300090E09C838B838B819C810197F1F79C833D
:101E40008B838D819E8101979E838D838D819E8161
:101E5000009769F714C06F81788589859A850E94FB
:101E60004900DC01CB019E838D838D819E819A8305
:101E7000898389819A810197F1F79A83898383E025
:101E800064E040E00E94640A2F960FB6F894DEBF2B
:101E90000FBECDBFCF91DF910895DF93CF93CDB724
:101EA000DEB72E970FB6F894DEBF0FBECDBF80E031
:101EB00090E0ACE0B2E48B879C87AD87BE876B85F2
:101EC0007C858D859E8520E030E04AE753E40E94C2
:101ED0001F02DC01CB018F839887A987BA876F81A6
:101EE000788589859A8520E030E040E85FE30E94AC
:101EF000250488232CF481E090E09E838D833FC0ED
:101F00006F81788589859A8520E03FEF4FE757E418
:101F10000E94C50318164CF56B857C858D859E85C2
:101F200020E030E040E251E40E941F02DC01CB01DE
:101F3000BC01CD010E944900DC01CB019E838D8351
:101F40000FC089E190E09C838B838B819C810197FA
:101F5000F1F79C838B838D819E8101979E838D8376
:101F60008D819E81009769F714C06F81788589857E
:101F70009A850E944900DC01CB019E838D838D816F
:101F80009E819A83898389819A810197F1F79A8347
:101F900089838CE30E94110E8CE00E94110E81E077
:101FA0000E94110E2E960FB6F894DEBF0FBECDBF65
:101FB000CF91DF910895DF93CF93CDB7DEB782E065
:101FC0006FEF0E94E20883E062E041E00E94640952
:101FD00083E063E041E00E94640983E064E041E063
:101FE0000E946409CF91DF910895DF93CF9300D0D1
:101FF0000F92CDB7DEB79B838A8319820EC0898189
:10200000282F30E08A819B81FC01E20FF31F808141
:102010000E94AF0E89818F5F89838981282F30E0EC
:102020008A819B81FC01E20FF31F8081882339F7AD
:102030000F900F900F90CF91DF910895DF93CF9382
:1020400000D00F92CDB7DEB78A836B838B81882354
:1020500019F48A81898306C08B81813019F48A81C1
:10206000805C898389818058898389810E94110ECF
:102070000F900F900F90CF91DF910895DF93CF9342
:10208000CDB7DEB727970FB6F894DEBF0FBECDBF32
:102090009C838B836D834E832F838D81882F90E06B
:1020A000880F991F880F991F880F991F8A838A812B
:1020B000805C0E94110E19820EC08981282F30E0A9
:1020C0008B819C81FC01E20FF31F80810E94AF0E87
:1020D00089818F5F89838981883078F38E816F81D0
:1020E0000E941E108A810E94AF0E27960FB6F894A8
:1020F000DEBF0FBECDBFCF91DF9108950F931F9329
:10210000DF93CF93CDB7DEB72F970FB6F894DEBF2E
:102110000FBECDBF6C877D878E879F878AE0FE01CB
:102120003296DF01982F1D929A95E9F789E089830D
:102130008C859D85AE85BF850097A105B10589F584
:1021400080E30E94AF0E2DC08981082F10E08C859E
:102150009D85AE85BF852AE030E040E050E0BC01BF
:10216000CD010E947B1ADC01CB01282FCE01029603
:10217000FC01E00FF11F20838C859D85AE85BF8516
:102180002AE030E040E050E0BC01CD010E947B1A23
:10219000DA01C9018C879D87AE87BF87898181500D
:1021A00089838C859D85AE85BF850097A105B10586
:1021B00059F689818F5F89830FC08981282F30E08C
:1021C000CE010296FC01E20FF31F8081805D0E9428
:1021D000AF0E89818F5F898389818A3070F32F9652
:1021E0000FB6F894DEBF0FBECDBFCF91DF911F9128
:1021F0000F910895DF93CF93CDB7DEB780E062E013
:1022000041E00E946409CF91DF910895DF93CF935D
:10221000CDB7DEB764970FB6F894DEBF0FBECDBF63
:1022200081E00E94050C9C8B8B8B8B899C89CC0157
:10223000A0E0B0E0BC01CD010E94A904DC01CB010B
:10224000BC01CD0126EF38E24CE950E40E941F02A8
:10225000DC01CB01BC01CD0120E030E040E251E4E3
:102260000E941903DC01CB01BC01CD010E94490091
:10227000DC01CB018F87988BA98BBA8B8F859889CE
:10228000A989BA898B319105A105B10568F080E073
:1022900062E041E00E94640A8FE060E00E941E104C
:1022A0008DE40E94AF0E0CC080E062E040E00E942E
:1022B000640A8FE060E00E941E1080E20E94AF0E70
:1022C00080E090E0A0EAB1E48B879C87AD87BE8771
:1022D0006B857C858D859E8520E030E04AE753E460
:1022E0000E941F02DC01CB018F839887A987BA87E0
:1022F0006F81788589859A8520E030E040E85FE34A
:102300000E94250488232CF481E090E09E838D8335
:102310003FC06F81788589859A8520E03FEF4FE740
:1023200057E40E94C50318164CF56B857C858D8596
:102330009E8520E030E040E251E40E941F02DC0173
:10234000CB01BC01CD010E944900DC01CB019E8381
:102350008D830FC089E190E09C838B838B819C816E
:102360000197F1F79C838B838D819E8101979E83DA
:102370008D838D819E81009769F714C06F81788568
:1023800089859A850E944900DC01CB019E838D835B
:102390008D819E819A83898389819A810197F1F742
:1023A0009A83898380E060E00E941E1089E690E0B5
:1023B0000E94F50F85E060E00E941E108F859889CD
:1023C000A989BA89BC01CD010E947E1064960FB61E
:1023D000F894DEBF0FBECDBFCF91DF910895DF939C
:1023E000CF93CDB7DEB72E970FB6F894DEBF0FBEF2
:1023F000CDBF83E065E041E00E9464090E9475075B
:1024000080E090E0A0E8BFE38B879C87AD87BE8724
:102410006B857C858D859E8520E030E04AE753E41E
:102420000E941F02DC01CB018F839887A987BA879E
:102430006F81788589859A8520E030E040E85FE308
:102440000E94250488232CF481E090E09E838D83F4
:102450003FC06F81788589859A8520E03FEF4FE7FF
:1024600057E40E94C50318164CF56B857C858D8555
:102470009E8520E030E040E251E40E941F02DC0132
:10248000CB01BC01CD010E944900DC01CB019E8340
:102490008D830FC089E190E09C838B838B819C812D
:1024A0000197F1F79C838B838D819E8101979E8399
:1024B0008D838D819E81009769F714C06F81788527
:1024C00089859A850E944900DC01CB019E838D831A
:1024D0008D819E819A83898389819A810197F1F701
:1024E0009A8389832E960FB6F894DEBF0FBECDBFB8
:1024F000CF91DF910895DF93CF93CDB7DEB760978B
:102500000FB6F894DEBF0FBECDBF8FEE92E0988B72
:102510008F877BC08F8598890E94C70780E090E0F5
:10252000A0E8BFE38B879C87AD87BE876B857C85E2
:102530008D859E8520E030E04AE753E40E941F022B
:10254000DC01CB018F839887A987BA876F81788553
:1025500089859A8520E030E040E85FE30E94250409
:1025600088232CF481E090E09E838D833FC06F81AF
:10257000788589859A8520E03FEF4FE757E40E94F0
:10258000C50318164CF56B857C858D859E8520E0EE
:1025900030E040E251E40E941F02DC01CB01BC01AB
:1025A000CD010E944900DC01CB019E838D830FC0C9
:1025B00089E190E09C838B838B819C810197F1F76B
:1025C0009C838B838D819E8101979E838D838D81DA
:1025D0009E81009769F714C06F81788589859A85F7
:1025E0000E944900DC01CB019E838D838D819E81F9
:1025F0009A83898389819A810197F1F79A838983E4
:102600008F8598890196988B8F878F85988927E089
:10261000813D920708F47ECF60960FB6F894DEBF36
:102620000FBECDBFCF91DF910895DF93CF93CDB78C
:10263000DEB760970FB6F894DEBF0FBECDBF80ED5A
:1026400097E0988B8F877BC08F8598890E94C707FA
:1026500080E090E0A0E8BFE38B879C87AD87BE87D2
:102660006B857C858D859E8520E030E04AE753E4CC
:102670000E941F02DC01CB018F839887A987BA874C
:102680006F81788589859A8520E030E040E85FE3B6
:102690000E94250488232CF481E090E09E838D83A2
:1026A0003FC06F81788589859A8520E03FEF4FE7AD
:1026B00057E40E94C50318164CF56B857C858D8503
:1026C0009E8520E030E040E251E40E941F02DC01E0
:1026D000CB01BC01CD010E944900DC01CB019E83EE
:1026E0008D830FC089E190E09C838B838B819C81DB
:1026F0000197F1F79C838B838D819E8101979E8347
:102700008D838D819E81009769F714C06F817885D4
:1027100089859A850E944900DC01CB019E838D83C7
:102720008D819E819A83898389819A810197F1F7AE
:102730009A8389838F8598890197988B8F878F8556
:10274000988922E08E3E920708F07ECF60960FB601
:10275000F894DEBF0FBECDBFCF91DF9108950F93E8
:102760001F93DF93CF93CDB7DEB765970FB6F8947D
:10277000DEBF0FBECDBF198A1A8A1B8A1C8A81E070
:102780000E94110E8FE690E00E94F50F188A1FC07C
:102790008889082F10E00E946607282FCE014196F5
:1027A000FC01E00FF11F208388898F5F61E00E94A8
:1027B0001E108889282F30E0CE014196FC01E20FDF
:1027C000F31F80810E94AF0E88898F5F888B888974
:1027D0008430F0F21F8692C08F85282F30E0CE0122
:1027E0004196FC01E20FF31F20818F85882F90E036
:1027F000FC01EF50FE4F8081281709F47CC081E076
:102800000E94110E8CE790E00E94F50F80E090E0AE
:10281000AAEFB4E48B879C87AD87BE876B857C85E8
:102820008D859E8520E030E04AE753E40E941F0238
:10283000DC01CB018F839887A987BA876F81788560
:1028400089859A8520E030E040E85FE30E94250416
:1028500088232CF481E090E09E838D833FC06F81BC
:10286000788589859A8520E03FEF4FE757E40E94FD
:10287000C50318164CF56B857C858D859E8520E0FB
:1028800030E040E251E40E941F02DC01CB01BC01B8
:10289000CD010E944900DC01CB019E838D830FC0D6
:1028A00089E190E09C838B838B819C810197F1F778
:1028B0009C838B838D819E8101979E838D838D81E7
:1028C0009E81009769F714C06F81788589859A8504
:1028D0000E944900DC01CB019E838D838D819E8106
:1028E0009A83898389819A810197F1F79A838983F1
:1028F00082E08D8B09C08F858F5F8F878F858430B5
:1029000008F46ACF83E08D8B8D8965960FB6F894B5
:10291000DEBF0FBECDBFCF91DF911F910F91089504
:102920000F931F93DF93CF93CDB7DEB7A3970FB667
:10293000F894DEBF0FBECDBF1F8E18A219A21AA237
:1029400081E00E94110E89E890E00E94F50F1E8E32
:1029500099C08E8D082F10E00E946607282FCE01A7
:102960004F96FC01E00FF11F20838E8D8F5F61E099
:102970000E941E108E8D282F30E0CE014F96FC0154
:10298000E20FF31F80810E94AF0E80E090E0AAE783
:10299000B4E4898F9A8FAB8FBC8F698D7A8D8B8DC4
:1029A0009C8D20E030E04AE753E40E941F02DC01E6
:1029B000CB018D8B9E8BAF8BB88F6D897E898F8974
:1029C000988D20E030E040E85FE30E9425048823F2
:1029D0002CF481E090E09C8B8B8B3FC06D897E89CD
:1029E0008F89988D20E03FEF4FE757E40E94C503A1
:1029F00018164CF5698D7A8D8B8D9C8D20E030E01A
:102A000040E251E40E941F02DC01CB01BC01CD0178
:102A10000E944900DC01CB019C8B8B8B0FC089E1AC
:102A200090E09A8B898B89899A890197F1F79A8B23
:102A3000898B8B899C8901979C8B8B8B8B899C893B
:102A4000009769F714C06D897E898F89988D0E94DF
:102A50004900DC01CB019C8B8B8B8B899C89988BEB
:102A60008F878F8598890197F1F7988B8F878E8D47
:102A70008F5F61E00E941E108AE20E94AF0E8E8D71
:102A80008F5F8E8F8E8D843008F463CF1D8E92C041
:102A90008D8D282F30E0CE014F96FC01E20FF31F01
:102AA00020818D8D882F90E0FC01EB50FE4F8081BE
:102AB000281709F47CC081E00E94110E8AE990E099
:102AC0000E94F50F80E090E0AAEFB4E48B879C872A
:102AD000AD87BE876B857C858D859E8520E030E047
:102AE0004AE753E40E941F02DC01CB018F839887E1
:102AF000A987BA876F81788589859A8520E030E03B
:102B000040E85FE30E94250488232CF481E090E0F4
:102B10009E838D833FC06F81788589859A8520E06B
:102B20003FEF4FE757E40E94C50318164CF56B853D
:102B30007C858D859E8520E030E040E251E40E9456
:102B40001F02DC01CB01BC01CD010E944900DC0168
:102B5000CB019E838D830FC089E190E09C838B83A2
:102B60008B819C810197F1F79C838B838D819E8162
:102B700001979E838D838D819E81009769F714C094
:102B80006F81788589859A850E944900DC01CB0197
:102B90009E838D838D819E819A83898389819A8189
:102BA0000197F1F79A83898384E08BA309C08D8D07
:102BB0008F5F8D8F8D8D843008F46ACF85E08BA375
:102BC0008BA1A3960FB6F894DEBF0FBECDBFCF91F9
:102BD000DF911F910F9108950F931F93DF93CF9370
:102BE000CDB7DEB7C556D0400FB6F894DEBF0FBEE6
:102BF000CDBF0E9417070E9428070E94DD0B0E948C
:102C0000DB0F0E944D0F0E94FA100E94760C0E946A
:102C1000EF11FE01EB59FF4F1082FE01EC59FF4FFF
:102C20001082FE01ED59FF4F82E080830E9466070B
:102C3000833509F054C48BEA90E00E94F50F80E0E0
:102C400061E00E941E108CEB90E00E94F50FFE01E7
:102C5000E15AFF4F80E090E4ACE9B5E480839183D2
:102C6000A283B3838E01055A1F4FFE01E15AFF4F25
:102C7000608171818281938120E030E04AE753E4F2
:102C80000E941F02DC01CB01F80180839183A283A3
:102C9000B383FE01E55AFF4F608171818281938188
:102CA00020E030E040E85FE30E942504882344F4FC
:102CB000FE01E75AFF4F81E090E09183808364C07A
:102CC000FE01E55AFF4F608171818281938120E08E
:102CD0003FEF4FE757E40E94C50318160CF043C0BE
:102CE000FE01E15AFF4F608171818281938120E072
:102CF00030E040E251E40E941F02DC01CB018E0172
:102D0000075A1F4FBC01CD010E944900DC01CB01D5
:102D1000F801918380831FC0FE01E95AFF4F89E1CA
:102D200090E091838083FE01E95AFF4F8081918179
:102D30000197F1F7FE01E95AFF4F91838083DE018D
:102D4000A75ABF4FFE01E75AFF4F8081918101973B
:102D500011969C938E93FE01E75AFF4F80819181DB
:102D60000097D1F627C08E01075A1F4FFE01E55A82
:102D7000FF4F60817181828193810E944900DC0153
:102D8000CB01F80191838083DE01AB5ABF4FFE0176
:102D9000E75AFF4F808191818D939C93FE01EB5AFE
:102DA000FF4F808191810197F1F7FE01EB5AFF4FB0
:102DB0009183808381E00E94110EFE01ED59FF4F47
:102DC00080818F5C0E944C070E94AF13FE01EB597B
:102DD000FF4F80839DC1FE01EB59FF4F8081823000
:102DE00009F0DCC0FE01ED59FF4F8081882309F016
:102DF000BEC081E00E94110E8DEC90E00E94F50FA4
:102E00000E941513FE01EF5AFF4F80E090E8ABE3FC
:102E1000B5E480839183A283B3838E01035B1F4F4C
:102E2000FE01EF5AFF4F608171818281938120E022
:102E300030E04AE753E40E941F02DC01CB01F801B5
:102E400080839183A283B383FE01E35BFF4F6081A4
:102E500071818281938120E030E040E85FE30E944D
:102E60002504882344F4FE01E55BFF4F81E090E0F8
:102E70009183808364C0FE01E35BFF4F60817181B9
:102E80008281938120E03FEF4FE757E40E94C50322
:102E900018160CF043C0FE01EF5AFF4F608171819C
:102EA0008281938120E030E040E251E40E941F02E1
:102EB000DC01CB018E01055B1F4FBC01CD010E94DF
:102EC0004900DC01CB01F801918380831FC0FE0122
:102ED000E75BFF4F89E190E091838083FE01E75B30
:102EE000FF4F808191810197F1F7FE01E75BFF4F72
:102EF00091838083DE01A55BBF4FFE01E55BFF4F41
:102F000080819181019711969C938E93FE01E55BE0
:102F1000FF4F808191810097D1F601C18E01055B41
:102F20001F4FFE01E35BFF4F6081718182819381BE
:102F30000E944900DC01CB01F80191838083DE010E
:102F4000A95BBF4FFE01E55BFF4F80819181119628
:102F50009C938E93FE01E95BFF4F808191810197E5
:102F6000F1F7FE01E95BFF4F91838083D8C0DE015A
:102F7000AD59BF4FFE01ED59FF4F808181508C93B9
:102F8000FE01ED59FF4F80818F5C0E944C070E942B
:102F9000AF13FE01EB59FF4F8083BAC0FE01EB591E
:102FA000FF4F8081833009F0B3C00E949014FE016E
:102FB000EC59FF4F8083FE01EC59FF4F8081843034
:102FC00009F0A6C0FE01ED59FF4F8081882309F06A
:102FD0008FC081E00E94110E8DEC90E00E94F50FF1
:102FE0000E941513FE01ED5BFF4F80E090E8ABE31C
:102FF000B5E480839183A283B3838E01015C1F4F6C
:10300000FE01ED5BFF4F608171818281938120E041
:1030100030E04AE753E40E941F02DC01CB01F801D3
:1030200080839183A283B383FE01FF9660817181C7
:103030008281938120E030E040E85FE30E94250434
:1030400088232CF481E090E09EAF8DAF46C0FE0156
:10305000FF96608171818281938120E03FEF4FE78D
:1030600057E40E94C503181664F5FE01ED5BFF4F9F
:10307000608171818281938120E030E040E251E4FF
:103080000E941F02DC01CB01BC01CD010E9449005E
:10309000DC01CB019EAF8DAF0FC089E190E09CAF0A
:1030A0008BAF8BAD9CAD0197F1F79CAF8BAF8DAD26
:1030B0009EAD01979EAF8DAF8DAD9EAD009769F728
:1030C0002EC0FE01FF9660817181828193810E94F2
:1030D0004900DC01CB019EAF8DAF8DAD9EAD9AAFA7
:1030E00089AF89AD9AAD0197F1F79AAF89AF17C053
:1030F000DE01AD59BF4FFE01ED59FF4F8081815078
:103100008C93FE01ED59FF4F8081805D0E944C073A
:10311000FE01EC59FF4F8081853009F05CCEFE0145
:10312000ED59FF4F8081882309F4D9C181E00E94C5
:10313000110E8CED90E00E94F50F80E090E8ABE37B
:10314000B5E48DAB9EABAFABB8AF6DA97EA98FA92F
:1031500098AD20E030E04AE753E40E941F02DC0112
:10316000CB0189AB9AABABABBCAB69A97AA98BA9F4
:103170009CA920E030E040E85FE30E94250488231A
:103180002CF481E090E098AB8FA73FC069A97AA9A1
:103190008BA99CA920E03FEF4FE757E40E94C503AD
:1031A00018164CF56DA97EA98FA998AD20E030E0E6
:1031B00040E251E40E941F02DC01CB01BC01CD01C1
:1031C0000E944900DC01CB0198AB8FA70FC089E1B9
:1031D00090E09EA78DA78DA59EA50197F1F79EA7CC
:1031E0008DA78FA598A9019798AB8FA78FA598A9B0
:1031F000009769F714C069A97AA98BA99CA90E94B4
:103200004900DC01CB0198AB8FA78FA598A99CA79B
:103210008BA78BA59CA50197F1F79CA78BA781E0B5
:103220000E94110E0E947B1280E090E0AAE7B4E4B5
:103230008FA398A7A9A7BAA76FA178A589A59AA5D2
:1032400020E030E04AE753E40E941F02DC01CB019A
:103250008BA39CA3ADA3BEA36BA17CA18DA19EA1BA
:1032600020E030E040E85FE30E94250488232CF44E
:1032700081E090E09AA389A33FC06BA17CA18DA1BE
:103280009EA120E03FEF4FE757E40E94C5031816C8
:103290004CF56FA178A589A59AA520E030E040E221
:1032A00051E40E941F02DC01CB01BC01CD010E9450
:1032B0004900DC01CB019AA389A30FC089E190E00A
:1032C00098A38F8F8F8D98A10197F1F798A38F8F77
:1032D00089A19AA101979AA389A389A19AA100978C
:1032E00069F714C06BA17CA18DA19EA10E94490029
:1032F000DC01CB019AA389A389A19AA19E8F8D8F0E
:103300008D8D9E8D0197F1F79E8F8D8F0E94810C80
:1033100080E090E0AAE7B4E4898F9A8FAB8FBC8FEE
:10332000698D7A8D8B8D9C8D20E030E04AE753E4E7
:103330000E941F02DC01CB018D8B9E8BAF8BB88F5F
:103340006D897E898F89988D20E030E040E85FE3C9
:103350000E94250488232CF481E090E09C8B8B8BC9
:103360003FC06D897E898F89988D20E03FEF4FE7C0
:1033700057E40E94C50318164CF5698D7A8D8B8D24
:103380009C8D20E030E040E251E40E941F02DC010D
:10339000CB01BC01CD010E944900DC01CB019C8B1B
:1033A0008B8B0FC089E190E09A8B898B89899A89F0
:1033B0000197F1F79A8B898B8B899C8901979C8B5C
:1033C0008B8B8B899C89009769F714C06D897E89E6
:1033D0008F89988D0E944900DC01CB019C8B8B8BDF
:1033E0008B899C89988B8F878F8598890197F1F7B6
:1033F000988B8F870E94061180E090E0AAE7B4E4E2
:103400008B879C87AD87BE876B857C858D859E85E8
:1034100020E030E04AE753E40E941F02DC01CB01C8
:103420008F839887A987BA876F81788589859A85E0
:1034300020E030E040E85FE30E94250488232CF47C
:1034400081E090E09E838D833FC06F817885898580
:103450009A8520E03FEF4FE757E40E94C503181616
:103460004CF56B857C858D859E8520E030E040E2C3
:1034700051E40E941F02DC01CB01BC01CD010E947E
:103480004900DC01CB019E838D830FC089E190E070
:103490009C838B838B819C810197F1F79C838B8329
:1034A0008D819E8101979E838D838D819E81009762
:1034B00069F72CCF6F81788589859A850E944900AC
:1034C000DC01CB019E838D838D819E819A838983CC
:1034D00089819A810197F1F79A83898317CFCB5914
:1034E000DF4F0FB6F894DEBF0FBECDBFCF91DF9197
:1034F0001F910F910895A1E21A2EAA1BBB1BFD017B
:103500000DC0AA1FBB1FEE1FFF1FA217B307E407C2
:10351000F50720F0A21BB30BE40BF50B661F771F1A
:10352000881F991F1A9469F76095709580959095FA
:103530009B01AC01BD01CF0108952F923F924F92A4
:103540005F926F927F928F929F92AF92BF92CF9233
:10355000DF92EF92FF920F931F93CF93DF93CDB73C
:10356000DEB7CA1BDB0B0FB6F894DEBF0FBECDBFB4
:1035700009942A88398848885F846E847D848C8485
:103580009B84AA84B984C884DF80EE80FD800C818E
:103590001B81AA81B981CE0FD11D0FB6F894DEBF71
:0C35A0000FBECDBFED010895F894FFCFE1
:1035AC004F4E2D4C4544733D0054454D503D00202D
:1035BC00456E74657220555345523A002057524F50
:1035CC004E472055534552210020456E746572209C
:1035DC0050617373776F72643A002057524F4E47A5
:1035EC002050415353574F5244210057656C636F21
:1035FC006D6520546F20536D61727400486F6D655A
:10360C002053797374656D205E5F5E2000205359E2
:10361C005354454D204C4F434B45440020444F4F91
:10362C0052204F50454E4544000000000000000061
:10363C000000010202030303030404040404040451
:10364C00040505050505050505050505050505051F
:10365C0005060606060606060606060606060606FF
:10366C0006060606060606060606060606060606EE
:10367C0006070707070707070707070707070707CF
:10368C0007070707070707070707070707070707BE
:10369C0007070707070707070707070707070707AE
:1036AC00070707070707070707070707070707079E
:1036BC00070808080808080808080808080808087F
:1036CC00080808080808080808080808080808086E
:1036DC00080808080808080808080808080808085E
:1036EC00080808080808080808080808080808084E
:1036FC00080808080808080808080808080808083E
:10370C00080808080808080808080808080808082D
:10371C00080808080808080808080808080808081D
:10372C00080808080808080808080808080808080D
:0A373C0008313233343132333400E7
:00000001FF
